{
  "abi": [
    {
      "type": "function",
      "name": "getGifts",
      "inputs": [
        {
          "name": "receiver",
          "type": "address",
          "internalType": "address"
        }
      ],
      "outputs": [
        {
          "name": "amounts",
          "type": "uint256[]",
          "internalType": "uint256[]"
        },
        {
          "name": "unlockTimes",
          "type": "uint256[]",
          "internalType": "uint256[]"
        },
        {
          "name": "messages",
          "type": "string[]",
          "internalType": "string[]"
        }
      ],
      "stateMutability": "view"
    },
    {
      "type": "function",
      "name": "gifts",
      "inputs": [
        {
          "name": "",
          "type": "address",
          "internalType": "address"
        },
        {
          "name": "",
          "type": "uint256",
          "internalType": "uint256"
        }
      ],
      "outputs": [
        {
          "name": "amount",
          "type": "uint256",
          "internalType": "uint256"
        },
        {
          "name": "unlockTime",
          "type": "uint256",
          "internalType": "uint256"
        },
        {
          "name": "message",
          "type": "string",
          "internalType": "string"
        }
      ],
      "stateMutability": "view"
    },
    {
      "type": "function",
      "name": "lockGift",
      "inputs": [
        {
          "name": "receiver",
          "type": "address",
          "internalType": "address"
        },
        {
          "name": "unlockTime",
          "type": "uint256",
          "internalType": "uint256"
        },
        {
          "name": "message",
          "type": "string",
          "internalType": "string"
        }
      ],
      "outputs": [],
      "stateMutability": "payable"
    },
    {
      "type": "function",
      "name": "testMe",
      "inputs": [],
      "outputs": [],
      "stateMutability": "nonpayable"
    },
    {
      "type": "function",
      "name": "unlockGift",
      "inputs": [
        {
          "name": "index",
          "type": "uint256",
          "internalType": "uint256"
        },
        {
          "name": "target",
          "type": "address",
          "internalType": "address"
        }
      ],
      "outputs": [],
      "stateMutability": "nonpayable"
    },
    {
      "type": "event",
      "name": "GiftLocked",
      "inputs": [
        {
          "name": "receiver",
          "type": "address",
          "indexed": true,
          "internalType": "address"
        },
        {
          "name": "amount",
          "type": "uint256",
          "indexed": false,
          "internalType": "uint256"
        },
        {
          "name": "unlockTime",
          "type": "uint256",
          "indexed": false,
          "internalType": "uint256"
        }
      ],
      "anonymous": false
    },
    {
      "type": "event",
      "name": "GiftUnlocked",
      "inputs": [
        {
          "name": "receiver",
          "type": "address",
          "indexed": true,
          "internalType": "address"
        },
        {
          "name": "amount",
          "type": "uint256",
          "indexed": false,
          "internalType": "uint256"
        }
      ],
      "anonymous": false
    },
    {
      "type": "event",
      "name": "IWASTESTED",
      "inputs": [],
      "anonymous": false
    }
  ],
  "bytecode": {
    "object": "0x608060405234801561001057600080fd5b506119b4806100206000396000f3fe60806040526004361061004a5760003560e01c8063524158401461004f578063639b82361461006657806371e32d7814610082578063b63b65d6146100c1578063c825b4f614610100575b600080fd5b34801561005b57600080fd5b50610064610129565b005b610080600480360381019061007b9190610dcf565b610157565b005b34801561008e57600080fd5b506100a960048036038101906100a49190610e3e565b6102e0565b6040516100b89392919061106a565b60405180910390f35b3480156100cd57600080fd5b506100e860048036038101906100e391906110b6565b610642565b6040516100f79392919061114f565b60405180910390f35b34801561010c57600080fd5b506101276004803603810190610122919061118d565b610711565b005b7f50e95d74126c429dc7eb65b04b2d7fdfe5a95776f982b17fb6b88111b6b4706d60405160405180910390a1565b6000341161019a576040517f08c379a000000000000000000000000000000000000000000000000000000000815260040161019190611219565b60405180910390fd5b428210156101dd576040517f08c379a00000000000000000000000000000000000000000000000000000000081526004016101d4906112ab565b60405180910390fd5b6000808473ffffffffffffffffffffffffffffffffffffffff1673ffffffffffffffffffffffffffffffffffffffff16815260200190815260200160002060405180606001604052803481526020018481526020018381525090806001815401808255809150506001900390600052602060002090600302016000909190919091506000820151816000015560208201518160010155604082015181600201908161028891906114d7565b5050508273ffffffffffffffffffffffffffffffffffffffff167f502bdeb08061e08a67992e4635bfcedb52a6e12d04b30741263ca7f6f0f25f7c34846040516102d39291906115a9565b60405180910390a2505050565b606080606060008060008673ffffffffffffffffffffffffffffffffffffffff1673ffffffffffffffffffffffffffffffffffffffff1681526020019081526020016000208054905090508067ffffffffffffffff81111561034557610344610ca4565b5b6040519080825280602002602001820160405280156103735781602001602082028036833780820191505090505b5093508067ffffffffffffffff8111156103905761038f610ca4565b5b6040519080825280602002602001820160405280156103be5781602001602082028036833780820191505090505b5092508067ffffffffffffffff8111156103db576103da610ca4565b5b60405190808252806020026020018201604052801561040e57816020015b60608152602001906001900390816103f95790505b50915060005b81811015610639576000808773ffffffffffffffffffffffffffffffffffffffff1673ffffffffffffffffffffffffffffffffffffffff168152602001908152602001600020818154811061046c5761046b6115d2565b5b906000526020600020906003020160000154858281518110610491576104906115d2565b5b6020026020010181815250506000808773ffffffffffffffffffffffffffffffffffffffff1673ffffffffffffffffffffffffffffffffffffffff16815260200190815260200160002081815481106104ed576104ec6115d2565b5b906000526020600020906003020160010154848281518110610512576105116115d2565b5b6020026020010181815250506000808773ffffffffffffffffffffffffffffffffffffffff1673ffffffffffffffffffffffffffffffffffffffff168152602001908152602001600020818154811061056e5761056d6115d2565b5b9060005260206000209060030201600201805461058a906112fa565b80601f01602080910402602001604051908101604052809291908181526020018280546105b6906112fa565b80156106035780601f106105d857610100808354040283529160200191610603565b820191906000526020600020905b8154815290600101906020018083116105e657829003601f168201915b505050505083828151811061061b5761061a6115d2565b5b6020026020010181905250808061063190611630565b915050610414565b50509193909250565b6000602052816000526040600020818154811061065e57600080fd5b90600052602060002090600302016000915091505080600001549080600101549080600201805461068e906112fa565b80601f01602080910402602001604051908101604052809291908181526020018280546106ba906112fa565b80156107075780601f106106dc57610100808354040283529160200191610707565b820191906000526020600020905b8154815290600101906020018083116106ea57829003601f168201915b5050505050905083565b60008060003373ffffffffffffffffffffffffffffffffffffffff1673ffffffffffffffffffffffffffffffffffffffff1681526020019081526020016000208381548110610763576107626115d2565b5b906000526020600020906003020160405180606001604052908160008201548152602001600182015481526020016002820180546107a0906112fa565b80601f01602080910402602001604051908101604052809291908181526020018280546107cc906112fa565b80156108195780601f106107ee57610100808354040283529160200191610819565b820191906000526020600020905b8154815290600101906020018083116107fc57829003601f168201915b5050505050815250509050806020015142101561086b576040517f08c379a0000000000000000000000000000000000000000000000000000000008152600401610862906116c4565b60405180910390fd5b60008160000151116108b2576040517f08c379a00000000000000000000000000000000000000000000000000000000081526004016108a990611730565b60405180910390fd5b600060016000803373ffffffffffffffffffffffffffffffffffffffff1673ffffffffffffffffffffffffffffffffffffffff168152602001908152602001600020805490506109029190611750565b90508084146109f4576000803373ffffffffffffffffffffffffffffffffffffffff1673ffffffffffffffffffffffffffffffffffffffff168152602001908152602001600020818154811061095b5761095a6115d2565b5b90600052602060002090600302016000803373ffffffffffffffffffffffffffffffffffffffff1673ffffffffffffffffffffffffffffffffffffffff16815260200190815260200160002085815481106109b9576109b86115d2565b5b90600052602060002090600302016000820154816000015560018201548160010155600282018160020190816109ef919061179a565b509050505b6000803373ffffffffffffffffffffffffffffffffffffffff1673ffffffffffffffffffffffffffffffffffffffff168152602001908152602001600020805480610a4257610a41611882565b5b60019003818190600052602060002090600302016000808201600090556001820160009055600282016000610a779190610b84565b5050905560008373ffffffffffffffffffffffffffffffffffffffff168360000151604051610aa5906118e2565b60006040518083038185875af1925050503d8060008114610ae2576040519150601f19603f3d011682016040523d82523d6000602084013e610ae7565b606091505b5050905080610b2b576040517f08c379a0000000000000000000000000000000000000000000000000000000008152600401610b2290611943565b60405180910390fd5b3373ffffffffffffffffffffffffffffffffffffffff167f1eaa6d999ca9df02cfc58baa25995fc8d5e8315132d42f8e55a416bf14ba61f28460000151604051610b759190611963565b60405180910390a25050505050565b508054610b90906112fa565b6000825580601f10610ba25750610bc1565b601f016020900490600052602060002090810190610bc09190610bc4565b5b50565b5b80821115610bdd576000816000905550600101610bc5565b5090565b6000604051905090565b600080fd5b600080fd5b600073ffffffffffffffffffffffffffffffffffffffff82169050919050565b6000610c2082610bf5565b9050919050565b610c3081610c15565b8114610c3b57600080fd5b50565b600081359050610c4d81610c27565b92915050565b6000819050919050565b610c6681610c53565b8114610c7157600080fd5b50565b600081359050610c8381610c5d565b92915050565b600080fd5b600080fd5b6000601f19601f8301169050919050565b7f4e487b7100000000000000000000000000000000000000000000000000000000600052604160045260246000fd5b610cdc82610c93565b810181811067ffffffffffffffff82111715610cfb57610cfa610ca4565b5b80604052505050565b6000610d0e610be1565b9050610d1a8282610cd3565b919050565b600067ffffffffffffffff821115610d3a57610d39610ca4565b5b610d4382610c93565b9050602081019050919050565b82818337600083830152505050565b6000610d72610d6d84610d1f565b610d04565b905082815260208101848484011115610d8e57610d8d610c8e565b5b610d99848285610d50565b509392505050565b600082601f830112610db657610db5610c89565b5b8135610dc6848260208601610d5f565b91505092915050565b600080600060608486031215610de857610de7610beb565b5b6000610df686828701610c3e565b9350506020610e0786828701610c74565b925050604084013567ffffffffffffffff811115610e2857610e27610bf0565b5b610e3486828701610da1565b9150509250925092565b600060208284031215610e5457610e53610beb565b5b6000610e6284828501610c3e565b91505092915050565b600081519050919050565b600082825260208201905092915050565b6000819050602082019050919050565b610ea081610c53565b82525050565b6000610eb28383610e97565b60208301905092915050565b6000602082019050919050565b6000610ed682610e6b565b610ee08185610e76565b9350610eeb83610e87565b8060005b83811015610f1c578151610f038882610ea6565b9750610f0e83610ebe565b925050600181019050610eef565b5085935050505092915050565b600081519050919050565b600082825260208201905092915050565b6000819050602082019050919050565b600081519050919050565b600082825260208201905092915050565b60005b83811015610f8f578082015181840152602081019050610f74565b60008484015250505050565b6000610fa682610f55565b610fb08185610f60565b9350610fc0818560208601610f71565b610fc981610c93565b840191505092915050565b6000610fe08383610f9b565b905092915050565b6000602082019050919050565b600061100082610f29565b61100a8185610f34565b93508360208202850161101c85610f45565b8060005b8581101561105857848403895281516110398582610fd4565b945061104483610fe8565b925060208a01995050600181019050611020565b50829750879550505050505092915050565b600060608201905081810360008301526110848186610ecb565b905081810360208301526110988185610ecb565b905081810360408301526110ac8184610ff5565b9050949350505050565b600080604083850312156110cd576110cc610beb565b5b60006110db85828601610c3e565b92505060206110ec85828601610c74565b9150509250929050565b6110ff81610c53565b82525050565b600082825260208201905092915050565b600061112182610f55565b61112b8185611105565b935061113b818560208601610f71565b61114481610c93565b840191505092915050565b600060608201905061116460008301866110f6565b61117160208301856110f6565b81810360408301526111838184611116565b9050949350505050565b600080604083850312156111a4576111a3610beb565b5b60006111b285828601610c74565b92505060206111c385828601610c3e565b9150509250929050565b7f416d6f756e74206d7573742062652067726561746572207468616e2030000000600082015250565b6000611203601d83611105565b915061120e826111cd565b602082019050919050565b60006020820190508181036000830152611232816111f6565b9050919050565b7f556e6c6f636b2074696d65206d75737420626520696e2074686520667574757260008201527f6500000000000000000000000000000000000000000000000000000000000000602082015250565b6000611295602183611105565b91506112a082611239565b604082019050919050565b600060208201905081810360008301526112c481611288565b9050919050565b7f4e487b7100000000000000000000000000000000000000000000000000000000600052602260045260246000fd5b6000600282049050600182168061131257607f821691505b602082108103611325576113246112cb565b5b50919050565b60008190508160005260206000209050919050565b60006020601f8301049050919050565b600082821b905092915050565b60006008830261138d7fffffffffffffffffffffffffffffffffffffffffffffffffffffffffffffffff82611350565b6113978683611350565b95508019841693508086168417925050509392505050565b6000819050919050565b60006113d46113cf6113ca84610c53565b6113af565b610c53565b9050919050565b6000819050919050565b6113ee836113b9565b6114026113fa826113db565b84845461135d565b825550505050565b600090565b61141761140a565b6114228184846113e5565b505050565b5b818110156114465761143b60008261140f565b600181019050611428565b5050565b601f82111561148b5761145c8161132b565b61146584611340565b81016020851015611474578190505b61148861148085611340565b830182611427565b50505b505050565b600082821c905092915050565b60006114ae60001984600802611490565b1980831691505092915050565b60006114c7838361149d565b9150826002028217905092915050565b6114e082610f55565b67ffffffffffffffff8111156114f9576114f8610ca4565b5b61150382546112fa565b61150e82828561144a565b600060209050601f831160018114611541576000841561152f578287015190505b61153985826114bb565b8655506115a1565b601f19841661154f8661132b565b60005b8281101561157757848901518255600182019150602085019450602081019050611552565b868310156115945784890151611590601f89168261149d565b8355505b6001600288020188555050505b505050505050565b60006040820190506115be60008301856110f6565b6115cb60208301846110f6565b9392505050565b7f4e487b7100000000000000000000000000000000000000000000000000000000600052603260045260246000fd5b7f4e487b7100000000000000000000000000000000000000000000000000000000600052601160045260246000fd5b600061163b82610c53565b91507fffffffffffffffffffffffffffffffffffffffffffffffffffffffffffffffff820361166d5761166c611601565b5b600182019050919050565b7f47696674206973206e6f7420756e6c6f636b6564000000000000000000000000600082015250565b60006116ae601483611105565b91506116b982611678565b602082019050919050565b600060208201905081810360008301526116dd816116a1565b9050919050565b7f47696674206e6f7420666f756e64000000000000000000000000000000000000600082015250565b600061171a600e83611105565b9150611725826116e4565b602082019050919050565b600060208201905081810360008301526117498161170d565b9050919050565b600061175b82610c53565b915061176683610c53565b925082820390508181111561177e5761177d611601565b5b92915050565b600081549050611793816112fa565b9050919050565b8181036117a8575050611880565b6117b182611784565b67ffffffffffffffff8111156117ca576117c9610ca4565b5b6117d482546112fa565b6117df82828561144a565b6000601f83116001811461180e57600084156117fc578287015490505b61180685826114bb565b865550611879565b601f19841661181c8761132b565b96506118278661132b565b60005b8281101561184f5784890154825560018201915060018501945060208101905061182a565b8683101561186c5784890154611868601f89168261149d565b8355505b6001600288020188555050505b5050505050505b565b7f4e487b7100000000000000000000000000000000000000000000000000000000600052603160045260246000fd5b600081905092915050565b50565b60006118cc6000836118b1565b91506118d7826118bc565b600082019050919050565b60006118ed826118bf565b9150819050919050565b7f5472616e73666572206661696c65640000000000000000000000000000000000600082015250565b600061192d600f83611105565b9150611938826118f7565b602082019050919050565b6000602082019050818103600083015261195c81611920565b9050919050565b600060208201905061197860008301846110f6565b9291505056fea264697066735822122069495dfab82b5afc6a204fa011f86b39a5aa3435971b494ebbadd35557cbc2bc64736f6c63430008120033",
    "linkReferences": {}
  },
  "methodIdentifiers": {
    "getGifts(address)": "71e32d78",
    "gifts(address,uint256)": "b63b65d6",
    "lockGift(address,uint256,string)": "639b8236",
    "testMe()": "52415840",
    "unlockGift(uint256,address)": "c825b4f6"
  },
  "id": 16
}